{
  "_format": "hh-sol-artifact-1",
  "contractName": "PatientConsentManager",
  "sourceName": "contracts/PatientConsentManager.sol",
  "abi": [
    {
      "anonymous": false,
      "inputs": [
        {
          "indexed": true,
          "internalType": "uint256",
          "name": "requestId",
          "type": "uint256"
        },
        {
          "indexed": true,
          "internalType": "address",
          "name": "patient",
          "type": "address"
        },
        {
          "indexed": false,
          "internalType": "uint256",
          "name": "timestamp",
          "type": "uint256"
        }
      ],
      "name": "AccessApproved",
      "type": "event"
    },
    {
      "anonymous": false,
      "inputs": [
        {
          "indexed": true,
          "internalType": "uint256",
          "name": "requestId",
          "type": "uint256"
        },
        {
          "indexed": true,
          "internalType": "address",
          "name": "patient",
          "type": "address"
        },
        {
          "indexed": false,
          "internalType": "uint256",
          "name": "timestamp",
          "type": "uint256"
        }
      ],
      "name": "AccessDenied",
      "type": "event"
    },
    {
      "anonymous": false,
      "inputs": [
        {
          "indexed": true,
          "internalType": "uint256",
          "name": "requestId",
          "type": "uint256"
        },
        {
          "indexed": true,
          "internalType": "address",
          "name": "requester",
          "type": "address"
        },
        {
          "indexed": true,
          "internalType": "address",
          "name": "patient",
          "type": "address"
        },
        {
          "indexed": false,
          "internalType": "string",
          "name": "dataType",
          "type": "string"
        },
        {
          "indexed": false,
          "internalType": "uint256",
          "name": "timestamp",
          "type": "uint256"
        }
      ],
      "name": "AccessRequested",
      "type": "event"
    },
    {
      "anonymous": false,
      "inputs": [
        {
          "indexed": true,
          "internalType": "uint256",
          "name": "consentId",
          "type": "uint256"
        },
        {
          "indexed": true,
          "internalType": "address",
          "name": "patient",
          "type": "address"
        },
        {
          "indexed": true,
          "internalType": "address",
          "name": "provider",
          "type": "address"
        },
        {
          "indexed": false,
          "internalType": "string",
          "name": "dataType",
          "type": "string"
        },
        {
          "indexed": false,
          "internalType": "uint256",
          "name": "timestamp",
          "type": "uint256"
        }
      ],
      "name": "ConsentGranted",
      "type": "event"
    },
    {
      "anonymous": false,
      "inputs": [
        {
          "indexed": true,
          "internalType": "uint256",
          "name": "consentId",
          "type": "uint256"
        },
        {
          "indexed": true,
          "internalType": "address",
          "name": "patient",
          "type": "address"
        },
        {
          "indexed": false,
          "internalType": "uint256",
          "name": "timestamp",
          "type": "uint256"
        }
      ],
      "name": "ConsentRevoked",
      "type": "event"
    },
    {
      "inputs": [
        {
          "internalType": "uint256",
          "name": "",
          "type": "uint256"
        }
      ],
      "name": "accessRequests",
      "outputs": [
        {
          "internalType": "address",
          "name": "requester",
          "type": "address"
        },
        {
          "internalType": "address",
          "name": "patientAddress",
          "type": "address"
        },
        {
          "internalType": "string",
          "name": "dataType",
          "type": "string"
        },
        {
          "internalType": "string",
          "name": "purpose",
          "type": "string"
        },
        {
          "internalType": "uint256",
          "name": "timestamp",
          "type": "uint256"
        },
        {
          "internalType": "bool",
          "name": "isApproved",
          "type": "bool"
        },
        {
          "internalType": "bool",
          "name": "isProcessed",
          "type": "bool"
        }
      ],
      "stateMutability": "view",
      "type": "function"
    },
    {
      "inputs": [],
      "name": "consentCounter",
      "outputs": [
        {
          "internalType": "uint256",
          "name": "",
          "type": "uint256"
        }
      ],
      "stateMutability": "view",
      "type": "function"
    },
    {
      "inputs": [
        {
          "internalType": "uint256",
          "name": "",
          "type": "uint256"
        }
      ],
      "name": "consentRecords",
      "outputs": [
        {
          "internalType": "address",
          "name": "patientAddress",
          "type": "address"
        },
        {
          "internalType": "address",
          "name": "providerAddress",
          "type": "address"
        },
        {
          "internalType": "string",
          "name": "dataType",
          "type": "string"
        },
        {
          "internalType": "uint256",
          "name": "timestamp",
          "type": "uint256"
        },
        {
          "internalType": "bool",
          "name": "isActive",
          "type": "bool"
        },
        {
          "internalType": "uint256",
          "name": "expirationTime",
          "type": "uint256"
        },
        {
          "internalType": "string",
          "name": "purpose",
          "type": "string"
        }
      ],
      "stateMutability": "view",
      "type": "function"
    },
    {
      "inputs": [
        {
          "internalType": "uint256",
          "name": "requestId",
          "type": "uint256"
        }
      ],
      "name": "getAccessRequest",
      "outputs": [
        {
          "components": [
            {
              "internalType": "address",
              "name": "requester",
              "type": "address"
            },
            {
              "internalType": "address",
              "name": "patientAddress",
              "type": "address"
            },
            {
              "internalType": "string",
              "name": "dataType",
              "type": "string"
            },
            {
              "internalType": "string",
              "name": "purpose",
              "type": "string"
            },
            {
              "internalType": "uint256",
              "name": "timestamp",
              "type": "uint256"
            },
            {
              "internalType": "bool",
              "name": "isApproved",
              "type": "bool"
            },
            {
              "internalType": "bool",
              "name": "isProcessed",
              "type": "bool"
            }
          ],
          "internalType": "struct PatientConsentManager.AccessRequest",
          "name": "",
          "type": "tuple"
        }
      ],
      "stateMutability": "view",
      "type": "function"
    },
    {
      "inputs": [
        {
          "internalType": "uint256",
          "name": "consentId",
          "type": "uint256"
        }
      ],
      "name": "getConsentRecord",
      "outputs": [
        {
          "components": [
            {
              "internalType": "address",
              "name": "patientAddress",
              "type": "address"
            },
            {
              "internalType": "address",
              "name": "providerAddress",
              "type": "address"
            },
            {
              "internalType": "string",
              "name": "dataType",
              "type": "string"
            },
            {
              "internalType": "uint256",
              "name": "timestamp",
              "type": "uint256"
            },
            {
              "internalType": "bool",
              "name": "isActive",
              "type": "bool"
            },
            {
              "internalType": "uint256",
              "name": "expirationTime",
              "type": "uint256"
            },
            {
              "internalType": "string",
              "name": "purpose",
              "type": "string"
            }
          ],
          "internalType": "struct PatientConsentManager.ConsentRecord",
          "name": "",
          "type": "tuple"
        }
      ],
      "stateMutability": "view",
      "type": "function"
    },
    {
      "inputs": [
        {
          "internalType": "address",
          "name": "patient",
          "type": "address"
        }
      ],
      "name": "getPatientConsents",
      "outputs": [
        {
          "internalType": "uint256[]",
          "name": "",
          "type": "uint256[]"
        }
      ],
      "stateMutability": "view",
      "type": "function"
    },
    {
      "inputs": [
        {
          "internalType": "address",
          "name": "patient",
          "type": "address"
        }
      ],
      "name": "getPatientRequests",
      "outputs": [
        {
          "internalType": "uint256[]",
          "name": "",
          "type": "uint256[]"
        }
      ],
      "stateMutability": "view",
      "type": "function"
    },
    {
      "inputs": [
        {
          "internalType": "address",
          "name": "provider",
          "type": "address"
        },
        {
          "internalType": "string",
          "name": "dataType",
          "type": "string"
        },
        {
          "internalType": "uint256",
          "name": "expirationTime",
          "type": "uint256"
        },
        {
          "internalType": "string",
          "name": "purpose",
          "type": "string"
        }
      ],
      "name": "grantConsent",
      "outputs": [
        {
          "internalType": "uint256",
          "name": "",
          "type": "uint256"
        }
      ],
      "stateMutability": "nonpayable",
      "type": "function"
    },
    {
      "inputs": [
        {
          "internalType": "address",
          "name": "patient",
          "type": "address"
        },
        {
          "internalType": "address",
          "name": "provider",
          "type": "address"
        },
        {
          "internalType": "string",
          "name": "dataType",
          "type": "string"
        }
      ],
      "name": "hasActiveConsent",
      "outputs": [
        {
          "internalType": "bool",
          "name": "hasConsent",
          "type": "bool"
        },
        {
          "internalType": "uint256",
          "name": "consentId",
          "type": "uint256"
        }
      ],
      "stateMutability": "view",
      "type": "function"
    },
    {
      "inputs": [
        {
          "internalType": "address",
          "name": "",
          "type": "address"
        },
        {
          "internalType": "uint256",
          "name": "",
          "type": "uint256"
        }
      ],
      "name": "patientConsents",
      "outputs": [
        {
          "internalType": "uint256",
          "name": "",
          "type": "uint256"
        }
      ],
      "stateMutability": "view",
      "type": "function"
    },
    {
      "inputs": [
        {
          "internalType": "address",
          "name": "",
          "type": "address"
        },
        {
          "internalType": "uint256",
          "name": "",
          "type": "uint256"
        }
      ],
      "name": "patientRequests",
      "outputs": [
        {
          "internalType": "uint256",
          "name": "",
          "type": "uint256"
        }
      ],
      "stateMutability": "view",
      "type": "function"
    },
    {
      "inputs": [
        {
          "internalType": "address",
          "name": "",
          "type": "address"
        },
        {
          "internalType": "uint256",
          "name": "",
          "type": "uint256"
        }
      ],
      "name": "providerConsents",
      "outputs": [
        {
          "internalType": "uint256",
          "name": "",
          "type": "uint256"
        }
      ],
      "stateMutability": "view",
      "type": "function"
    },
    {
      "inputs": [
        {
          "internalType": "address",
          "name": "patient",
          "type": "address"
        },
        {
          "internalType": "string",
          "name": "dataType",
          "type": "string"
        },
        {
          "internalType": "string",
          "name": "purpose",
          "type": "string"
        }
      ],
      "name": "requestAccess",
      "outputs": [
        {
          "internalType": "uint256",
          "name": "",
          "type": "uint256"
        }
      ],
      "stateMutability": "nonpayable",
      "type": "function"
    },
    {
      "inputs": [],
      "name": "requestCounter",
      "outputs": [
        {
          "internalType": "uint256",
          "name": "",
          "type": "uint256"
        }
      ],
      "stateMutability": "view",
      "type": "function"
    },
    {
      "inputs": [
        {
          "internalType": "uint256",
          "name": "requestId",
          "type": "uint256"
        },
        {
          "internalType": "bool",
          "name": "approved",
          "type": "bool"
        }
      ],
      "name": "respondToAccessRequest",
      "outputs": [],
      "stateMutability": "nonpayable",
      "type": "function"
    },
    {
      "inputs": [
        {
          "internalType": "uint256",
          "name": "consentId",
          "type": "uint256"
        }
      ],
      "name": "revokeConsent",
      "outputs": [],
      "stateMutability": "nonpayable",
      "type": "function"
    }
  ],
  "bytecode": "0x608060405234801561001057600080fd5b50611bcd806100206000396000f3fe608060405234801561001057600080fd5b50600436106101005760003560e01c806381581c6011610097578063973a814e11610066578063973a814e1461024f578063a7e2981414610258578063ee12bc711461026b578063f683ab9d1461028b57600080fd5b806381581c60146101e75780638ca91a9a146101fa5780638cbb952414610220578063918e08eb1461022957600080fd5b80633217bc72116100d35780633217bc721461018d57806348342405146101ae5780634fdf4d51146101c15780637decccbf146101d457600080fd5b806316a0042c14610105578063249243851461011a5780632c06b5a1146101435780632eda52751461016d575b600080fd5b6101186101133660046114f6565b61029e565b005b61012d61012836600461152b565b6103a5565b60405161013a919061154d565b60405180910390f35b610156610151366004611634565b610411565b60408051921515835260208301919091520161013a565b61018061017b3660046114f6565b6106df565b60405161013a91906116d8565b6101a061019b36600461175b565b61089f565b60405190815260200161013a565b6101a06101bc366004611785565b6108d0565b6101a06101cf36600461175b565b610b91565b61012d6101e236600461152b565b610bad565b6101186101f5366004611803565b610c17565b61020d6102083660046114f6565b610d7d565b60405161013a9796959493929190611838565b6101a060055481565b61023c6102373660046114f6565b610edc565b60405161013a9796959493929190611898565b6101a060065481565b6101a06102663660046118f8565b61103d565b61027e6102793660046114f6565b6112f3565b60405161013a9190611962565b6101a061029936600461175b565b6114da565b600081815260208190526040902080546001600160a01b0316331461030a5760405162461bcd60e51b815260206004820152601f60248201527f4f6e6c792070617469656e742063616e207265766f6b6520636f6e73656e740060448201526064015b60405180910390fd5b600481015460ff1661035e5760405162461bcd60e51b815260206004820152601b60248201527f436f6e73656e7420697320616c726561647920696e61637469766500000000006044820152606401610301565b60048101805460ff19169055604051428152339083907f563e8055f4e0636d85fcd1b6388234884f212da5648b6c69901181dfba62b88e9060200160405180910390a35050565b6001600160a01b03811660009081526001602090815260409182902080548351818402810184019094528084526060939283018282801561040557602002820191906000526020600020905b8154815260200190600101908083116103f1575b50505050509050919050565b6001600160a01b038316600090815260016020908152604080832080548251818502810185019093528083528493849392919083018282801561047357602002820191906000526020600020905b81548152602001906001019080831161045f575b5050505050905060005b81518110156106cd57600080600084848151811061049d5761049d6119f0565b6020908102919091018101518252818101929092526040908101600020815160e08101835281546001600160a01b0390811682526001830154169381019390935260028101805491928401916104f290611a06565b80601f016020809104026020016040519081016040528092919081815260200182805461051e90611a06565b801561056b5780601f106105405761010080835404028352916020019161056b565b820191906000526020600020905b81548152906001019060200180831161054e57829003601f168201915b505050918352505060038201546020820152600482015460ff1615156040820152600582015460608201526006820180546080909201916105ab90611a06565b80601f01602080910402602001604051908101604052809291908181526020018280546105d790611a06565b80156106245780601f106105f957610100808354040283529160200191610624565b820191906000526020600020905b81548152906001019060200180831161060757829003601f168201915b5050505050815250509050866001600160a01b031681602001516001600160a01b031614801561066557508580519060200120816040015180519060200120145b8015610672575080608001515b801561068d575060a0810151158061068d5750428160a00151115b156106ba5760018383815181106106a6576106a66119f0565b6020026020010151945094505050506106d7565b50806106c581611a40565b91505061047d565b5060008092509250505b935093915050565b6040805160e080820183526000808352602080840182905260608486018190528085018390526080850183905260a0850183905260c0850152858252818152908490208451928301855280546001600160a01b0390811684526001820154169183019190915260028101805493949293919284019161075d90611a06565b80601f016020809104026020016040519081016040528092919081815260200182805461078990611a06565b80156107d65780601f106107ab576101008083540402835291602001916107d6565b820191906000526020600020905b8154815290600101906020018083116107b957829003601f168201915b505050918352505060038201546020820152600482015460ff16151560408201526005820154606082015260068201805460809092019161081690611a06565b80601f016020809104026020016040519081016040528092919081815260200182805461084290611a06565b801561088f5780601f106108645761010080835404028352916020019161088f565b820191906000526020600020905b81548152906001019060200180831161087257829003601f168201915b5050505050815250509050919050565b600460205281600052604060002081815481106108bb57600080fd5b90600052602060002001600091509150505481565b60006001600160a01b0385166109285760405162461bcd60e51b815260206004820152601860248201527f496e76616c69642070726f7669646572206164647265737300000000000000006044820152606401610301565b336001600160a01b038616036109805760405162461bcd60e51b815260206004820152601c60248201527f43616e6e6f74206772616e7420636f6e73656e7420746f2073656c66000000006044820152606401610301565b60008451116109cc5760405162461bcd60e51b815260206004820152601860248201527744617461547970652063616e6e6f7420626520656d70747960401b6044820152606401610301565b6000825111610a175760405162461bcd60e51b8152602060048201526017602482015276507572706f73652063616e6e6f7420626520656d70747960481b6044820152606401610301565b6005805460009182610a2883611a40565b909155506040805160e0810182523381526001600160a01b0389811660208084019182528385018b815242606086015260016080860181905260a086018c905260c086018b905260008881529283905295909120845181549085166001600160a01b0319918216178255925195810180549690941695909216949094179091559151929350916002820190610abd9082611ab5565b5060608201516003820155608082015160048201805460ff191691151591909117905560a0820151600582015560c08201516006820190610afe9082611ab5565b505033600081815260016020818152604080842080548085018255908552828520018790556001600160a01b038c168085526002835281852080549485018155855291909320909101859055905190925083907f1f0e9d107291ef1fbca396aff88a30cb1f34cf16a2e4727938f54fb0b651a48a90610b80908a904290611b75565b60405180910390a495945050505050565b600160205281600052604060002081815481106108bb57600080fd5b6001600160a01b03811660009081526004602090815260409182902080548351818402810184019094528084526060939283018282801561040557602002820191906000526020600020908154815260200190600101908083116103f15750505050509050919050565b60008281526003602052604090206005810154610100900460ff1615610c7f5760405162461bcd60e51b815260206004820152601960248201527f5265717565737420616c72656164792070726f636573736564000000000000006044820152606401610301565b60018101546001600160a01b03163314610ce75760405162461bcd60e51b815260206004820152602360248201527f4f6e6c792070617469656e742063616e20726573706f6e6420746f2072657175604482015262195cdd60ea1b6064820152608401610301565b6005810180548315801561ffff199092169190911761010017909155610d4457604051428152339084907f48ae3ba146201cdafd628e5f29e78614c4aad583007b13d64e161955bb59833e906020015b60405180910390a3505050565b604051428152339084907fe05fc490f5f6078316ee1d72c13fc51db82997cb1ff73c9dec90a97bb362636290602001610d37565b505050565b6003602052600090815260409020805460018201546002830180546001600160a01b03938416949290931692610db290611a06565b80601f0160208091040260200160405190810160405280929190818152602001828054610dde90611a06565b8015610e2b5780601f10610e0057610100808354040283529160200191610e2b565b820191906000526020600020905b815481529060010190602001808311610e0e57829003601f168201915b505050505090806003018054610e4090611a06565b80601f0160208091040260200160405190810160405280929190818152602001828054610e6c90611a06565b8015610eb95780601f10610e8e57610100808354040283529160200191610eb9565b820191906000526020600020905b815481529060010190602001808311610e9c57829003601f168201915b50505050600483015460059093015491929160ff80821692506101009091041687565b6000602081905290815260409020805460018201546002830180546001600160a01b03938416949290931692610f1190611a06565b80601f0160208091040260200160405190810160405280929190818152602001828054610f3d90611a06565b8015610f8a5780601f10610f5f57610100808354040283529160200191610f8a565b820191906000526020600020905b815481529060010190602001808311610f6d57829003601f168201915b5050506003840154600485015460058601546006870180549697939660ff909316955090935090610fba90611a06565b80601f0160208091040260200160405190810160405280929190818152602001828054610fe690611a06565b80156110335780601f1061100857610100808354040283529160200191611033565b820191906000526020600020905b81548152906001019060200180831161101657829003601f168201915b5050505050905087565b60006001600160a01b0384166110955760405162461bcd60e51b815260206004820152601760248201527f496e76616c69642070617469656e7420616464726573730000000000000000006044820152606401610301565b336001600160a01b038516036110ed5760405162461bcd60e51b815260206004820152601f60248201527f43616e6e6f742072657175657374206163636573732066726f6d2073656c66006044820152606401610301565b60008351116111395760405162461bcd60e51b815260206004820152601860248201527744617461547970652063616e6e6f7420626520656d70747960401b6044820152606401610301565b60008251116111845760405162461bcd60e51b8152602060048201526017602482015276507572706f73652063616e6e6f7420626520656d70747960481b6044820152606401610301565b600680546000918261119583611a40565b909155506040805160e0810182523381526001600160a01b0388811660208084019182528385018a8152606085018a9052426080860152600060a0860181905260c086018190528781526003909252949020835181549084166001600160a01b031991821617825591516001820180549190941692169190911790915591519293509160028201906112279082611ab5565b506060820151600382019061123c9082611ab5565b50608082015160048083019190915560a08301516005909201805460c09094015115156101000261ff00199315159390931661ffff1990941693909317919091179091556001600160a01b0386166000818152602092835260408082208054600181018255908352939091209092018390559051339083907fecbfe9b7df35ce2573b13b1de3b1e796a3066efd6b894faf0b9cef374f8b44fb906112e39089904290611b75565b60405180910390a4949350505050565b6113496040518060e0016040528060006001600160a01b0316815260200160006001600160a01b031681526020016060815260200160608152602001600081526020016000151581526020016000151581525090565b600082815260036020908152604091829020825160e08101845281546001600160a01b03908116825260018301541692810192909252600281018054929391929184019161139690611a06565b80601f01602080910402602001604051908101604052809291908181526020018280546113c290611a06565b801561140f5780601f106113e45761010080835404028352916020019161140f565b820191906000526020600020905b8154815290600101906020018083116113f257829003601f168201915b5050505050815260200160038201805461142890611a06565b80601f016020809104026020016040519081016040528092919081815260200182805461145490611a06565b80156114a15780601f10611476576101008083540402835291602001916114a1565b820191906000526020600020905b81548152906001019060200180831161148457829003601f168201915b50505091835250506004820154602082015260059091015460ff8082161515604084015261010090910416151560609091015292915050565b600260205281600052604060002081815481106108bb57600080fd5b60006020828403121561150857600080fd5b5035919050565b80356001600160a01b038116811461152657600080fd5b919050565b60006020828403121561153d57600080fd5b6115468261150f565b9392505050565b6020808252825182820181905260009190848201906040850190845b8181101561158557835183529284019291840191600101611569565b50909695505050505050565b634e487b7160e01b600052604160045260246000fd5b600082601f8301126115b857600080fd5b813567ffffffffffffffff808211156115d3576115d3611591565b604051601f8301601f19908116603f011681019082821181831017156115fb576115fb611591565b8160405283815286602085880101111561161457600080fd5b836020870160208301376000602085830101528094505050505092915050565b60008060006060848603121561164957600080fd5b6116528461150f565b92506116606020850161150f565b9150604084013567ffffffffffffffff81111561167c57600080fd5b611688868287016115a7565b9150509250925092565b6000815180845260005b818110156116b85760208185018101518683018201520161169c565b506000602082860101526020601f19601f83011685010191505092915050565b60208152600060018060a01b0380845116602084015280602085015116604084015250604083015160e06060840152611715610100840182611692565b9050606084015160808401526080840151151560a084015260a084015160c084015260c0840151601f198483030160e08501526117528282611692565b95945050505050565b6000806040838503121561176e57600080fd5b6117778361150f565b946020939093013593505050565b6000806000806080858703121561179b57600080fd5b6117a48561150f565b9350602085013567ffffffffffffffff808211156117c157600080fd5b6117cd888389016115a7565b94506040870135935060608701359150808211156117ea57600080fd5b506117f7878288016115a7565b91505092959194509250565b6000806040838503121561181657600080fd5b823591506020830135801515811461182d57600080fd5b809150509250929050565b6001600160a01b0388811682528716602082015260e06040820181905260009061186490830188611692565b82810360608401526118768188611692565b6080840196909652505091151560a0830152151560c090910152949350505050565b6001600160a01b0388811682528716602082015260e0604082018190526000906118c490830188611692565b86606084015285151560808401528460a084015282810360c08401526118ea8185611692565b9a9950505050505050505050565b60008060006060848603121561190d57600080fd5b6119168461150f565b9250602084013567ffffffffffffffff8082111561193357600080fd5b61193f878388016115a7565b9350604086013591508082111561195557600080fd5b50611688868287016115a7565b60208152600060018060a01b0380845116602084015280602085015116604084015250604083015160e0606084015261199f610100840182611692565b90506060840151601f198483030160808501526119bc8282611692565b915050608084015160a084015260a0840151151560c084015260c08401516119e860e085018215159052565b509392505050565b634e487b7160e01b600052603260045260246000fd5b600181811c90821680611a1a57607f821691505b602082108103611a3a57634e487b7160e01b600052602260045260246000fd5b50919050565b600060018201611a6057634e487b7160e01b600052601160045260246000fd5b5060010190565b601f821115610d7857600081815260208120601f850160051c81016020861015611a8e5750805b601f850160051c820191505b81811015611aad57828155600101611a9a565b505050505050565b815167ffffffffffffffff811115611acf57611acf611591565b611ae381611add8454611a06565b84611a67565b602080601f831160018114611b185760008415611b005750858301515b600019600386901b1c1916600185901b178555611aad565b600085815260208120601f198616915b82811015611b4757888601518255948401946001909101908401611b28565b5085821015611b655787850151600019600388901b60f8161c191681555b5050505050600190811b01905550565b604081526000611b886040830185611692565b9050826020830152939250505056fea2646970667358221220e1698ee9e23ecf6775402a3966f9be31c59d53b0817254f1ffbb58c037ad528864736f6c63430008140033",
  "linkReferences": {},
  "deployedLinkReferences": {}
}